:100000000C94B3000C94D4000C94D4000C94D40041
:100010000C94D4000C943B0C0C94580C0C94D4000D
:100020000C94D4000C94D4000C94D4000C94D40000
:100030000C94D4000C94D4000C94D4000C94D400F0
:100040000C94D4000C94D4000C94D4000C94D400E0
:100050000C94D4000C94D4000C94D4000C94D400D0
:100060000C94D4000C94180F0C94D4000C94D4006D
:100070000C94D4000C94D4000C94D4000C94D400B0
:100080000C94D4000C94D4000C94D4000C94D400A0
:100090000C94D4000C94D4000C94D4000C94D40090
:1000A0000C94D4000C94D4000C94D4000C94D40080
:1000B0000C94D4000C94D4000C94D4000C94D40070
:1000C0000C94D4000C94D4000C94D4000C94D40060
:1000D0000C94D4000C94D4000C94D4000C94D40050
:1000E0000C94D40007634236B79BD8A71A396856D8
:1000F00018AEBAAB558C1D3CB7CC5763BD6DEDFD4A
:10010000753EF6177231BF000000803F0800000006
:10011000BE922449123EABAAAA2ABECDCCCC4C3EFC
:1001200000000080BEABAAAAAA3E00000000BF00EB
:100130000000803F0000000000084178D3BB4387E7
:10014000D1133D190E3CC3BD4282AD2B3E68EC82FB
:1001500076BED98FE1A93E4C80EFFFBE01C4FF7F80
:100160003F000000000011241FBECFEFD1E2DEBF30
:10017000CDBF00E00CBF13E0A0E0B2E0E0E9FDE598
:1001800000E00BBF02C007900D92AA30B107D9F76B
:1001900013E0AAE0B3E001C01D92A135B107E1F779
:1001A0000E94910F0C94C62E0C9400000F931F9385
:1001B000DF93CF93CDB7DEB7C057D0400FB6F894DA
:1001C000DEBF0FBECDBFFE01E359FF4F80E090E0E0
:1001D000A0E8BFE380839183A283B3838E01075994
:1001E0001F4FFE01E359FF4F60817181828193812E
:1001F0002DEC3CEC4CE255E40E94AE26DC01CB0138
:10020000F80180839183A283B383FE01E759FF4FF6
:10021000608171818281938120E030E040E85FE37A
:100220000E94B428882344F4FE01E959FF4F81E07D
:1002300090E09183808364C0FE01E759FF4F6081A5
:1002400071818281938120E03FEF4FE757E40E9464
:10025000542818160CF043C0FE01E359FF4F60818B
:1002600071818281938120E030E040E251E40E947C
:10027000AE26DC01CB018E0109591F4FBC01CD0117
:100280000E94D824DC01CB01F801918380831FC038
:10029000FE01EB59FF4F84E191E091838083FE01E1
:1002A000EB59FF4F808191810197F1F7FE01EB59E6
:1002B000FF4F91838083DE01A959BF4FFE01E959A9
:1002C000FF4F80819181019711969C938E93FE013F
:1002D000E959FF4F808191810097D1F627C08E01A7
:1002E00009591F4FFE01E759FF4F608171818281DB
:1002F00093810E94D824DC01CB01F8019183808393
:10030000DE01AD59BF4FFE01E959FF4F8081918158
:100310008D939C93FE01ED59FF4F80819181019750
:10032000F1F7FE01ED59FF4F91838083A8E2B0E021
:10033000E8E2F0E080818E7F8C93A8E2B0E0E8E212
:10034000F0E080818D7F8C93E8E2F0E080E38083B1
:10035000A8E2B0E0E8E2F0E0808184608C93FE01E6
:10036000E15AFF4F80E090E0A0EAB0E480839183FF
:10037000A283B3838E01055A1F4FFE01E15AFF4F3E
:1003800060817181828193812DEC3CEC4CE255E4DB
:100390000E94AE26DC01CB01F80180839183A28309
:1003A000B383FE01E55AFF4F6081718182819381A1
:1003B00020E030E040E85FE30E94B428882344F462
:1003C000FE01E75AFF4F81E090E09183808364C093
:1003D000FE01E55AFF4F608171818281938120E0A7
:1003E0003FEF4FE757E40E94542818160CF043C023
:1003F000FE01E15AFF4F608171818281938120E08B
:1004000030E040E251E40E94AE26DC01CB018E01D7
:10041000075A1F4FBC01CD010E94D824DC01CB013B
:10042000F801918380831FC0FE01E95AFF4F84E1E8
:1004300091E091838083FE01E95AFF4F8081918191
:100440000197F1F7FE01E95AFF4F91838083DE01A6
:10045000A75ABF4FFE01E75AFF4F80819181019754
:1004600011969C938E93FE01E75AFF4F80819181F4
:100470000097D1F627C08E01075A1F4FFE01E55A9B
:10048000FF4F60817181828193810E94D824DC01B9
:10049000CB01F80191838083DE01AB5ABF4FFE018F
:1004A000E75AFF4F808191818D939C93FE01EB5A17
:1004B000FF4F808191810197F1F7FE01EB5AFF4FC9
:1004C00091838083A8E2B0E0E8E2F0E080818B7F56
:1004D0008C93FE01EF5AFF4F80E090E0A0E8BFE36D
:1004E00080839183A283B3838E01035B1F4FFE0140
:1004F000EF5AFF4F60817181828193812DEC3CEC3A
:100500004CE255E40E94AE26DC01CB01F801808369
:100510009183A283B383FE01E35BFF4F608171810E
:100520008281938120E030E040E85FE30E94B428BC
:10053000882344F4FE01E55BFF4F81E090E0918366
:10054000808364C0FE01E35BFF4F60817181828123
:10055000938120E03FEF4FE757E40E94542818169C
:100560000CF043C0FE01EF5AFF4F60817181828120
:10057000938120E030E040E251E40E94AE26DC01AD
:10058000CB018E01055B1F4FBC01CD010E94D82419
:10059000DC01CB01F801918380831FC0FE01E75B82
:1005A000FF4F84E191E091838083FE01E75BFF4F81
:1005B000808191810197F1F7FE01E75BFF4F918305
:1005C0008083DE01A55BBF4FFE01E55BFF4F8081AD
:1005D0009181019711969C938E93FE01E55BFF4FED
:1005E000808191810097D1F627C08E01055B1F4F56
:1005F000FE01E35BFF4F60817181828193810E94E4
:10060000D824DC01CB01F80191838083DE01A95B52
:10061000BF4FFE01E55BFF4F808191818D939C93DD
:10062000FE01E95BFF4F808191810197F1F7FE01A7
:10063000E95BFF4F91838083A8E2B0E0E8E2F0E05D
:1006400080818E7F8C93A8E2B0E0E8E2F0E08081C8
:100650008D7F8C93E8E2F0E080E38083A8E2B0E055
:10066000E8E2F0E0808184608C93FE01ED5BFF4F57
:1006700080E090E0A0EAB0E480839183A283B3831A
:100680008E01015C1F4FFE01ED5BFF4F60817181A8
:10069000828193812DEC3CEC4CE255E40E94AE2625
:1006A000DC01CB01F80180839183A283B383FE0137
:1006B000FF96608171818281938120E030E040E883
:1006C0005FE30E94B42888232CF481E090E09EAF81
:1006D0008DAF46C0FE01FF9660817181828193815A
:1006E00020E03FEF4FE757E40E945428181664F5C6
:1006F000FE01ED5BFF4F608171818281938120E07B
:1007000030E040E251E40E94AE26DC01CB01BC01A6
:10071000CD010E94D824DC01CB019EAF8DAF0FC06C
:1007200084E191E09CAF8BAF8BAD9CAD0197F1F76D
:100730009CAF8BAF8DAD9EAD01979EAF8DAF8DAD54
:100740009EAD009769F716C0FE01FF96608171812A
:10075000828193810E94D824DC01CB019EAF8DAFB2
:100760008DAD9EAD9AAF89AF89AD9AAD0197F1F786
:100770009AAF89AFA8E2B0E0E8E2F0E080818B7F39
:100780008C9380E090E0A0E8BFE38DAB9EABAFAB75
:10079000B8AF6DA97EA98FA998AD2DEC3CEC4CE2C9
:1007A00055E40E94AE26DC01CB0189AB9AABABAB22
:1007B000BCAB69A97AA98BA99CA920E030E040E8EC
:1007C0005FE30E94B42888232CF481E090E098AB8A
:1007D0008FA73FC069A97AA98BA99CA920E03FEF08
:1007E0004FE757E40E94542818164CF56DA97EA9CE
:1007F0008FA998AD20E030E040E251E40E94AE269F
:10080000DC01CB01BC01CD010E94D824DC01CB016D
:1008100098AB8FA70FC084E191E09EA78DA78DA50F
:100820009EA50197F1F79EA78DA78FA598A901977F
:1008300098AB8FA78FA598A9009769F714C069A9ED
:100840007AA98BA99CA90E94D824DC01CB0198AB82
:100850008FA78FA598A99CA78BA78BA59CA501976F
:10086000F1F79CA78BA7A8E2B0E0E8E2F0E0808176
:100870008E7F8C93A8E2B0E0E8E2F0E080818D7F8B
:100880008C93E8E2F0E080E38083A8E2B0E0E8E265
:10089000F0E0808184608C9380E090E0A0EAB0E496
:1008A0008FA398A7A9A7BAA76FA178A589A59AA58C
:1008B0002DEC3CEC4CE255E40E94AE26DC01CB0171
:1008C0008BA39CA3ADA3BEA36BA17CA18DA19EA174
:1008D00020E030E040E85FE30E94B42888232CF455
:1008E00081E090E09AA389A33FC06BA17CA18DA178
:1008F0009EA120E03FEF4FE757E40E9454281816CE
:100900004CF56FA178A589A59AA520E030E040E2DA
:1009100051E40E94AE26DC01CB01BC01CD010E9456
:10092000D824DC01CB019AA389A30FC084E191E014
:1009300098A38F8F8F8D98A10197F1F798A38F8F30
:1009400089A19AA101979AA389A389A19AA1009745
:1009500069F714C06BA17CA18DA19EA10E94D8242F
:10096000DC01CB019AA389A389A19AA19E8F8D8FC7
:100970008D8D9E8D0197F1F79E8F8D8FA8E2B0E04F
:10098000E8E2F0E080818B7F8C9380E090E0A0E84B
:10099000BFE3898F9A8FAB8FBC8F698D7A8D8B8DDA
:1009A0009C8D2DEC3CEC4CE255E40E94AE26DC0123
:1009B000CB018D8B9E8BAF8BB88F6D897E898F8994
:1009C000988D20E030E040E85FE30E94B42888235F
:1009D0002CF481E090E09C8B8B8B3FC06D897E89ED
:1009E0008F89988D20E03FEF4FE757E40E9454280D
:1009F00018164CF5698D7A8D8B8D9C8D20E030E03A
:100A000040E251E40E94AE26DC01CB01BC01CD01E5
:100A10000E94D824DC01CB019C8B8B8B0FC084E11E
:100A200091E09A8B898B89899A890197F1F79A8B42
:100A3000898B8B899C8901979C8B8B8B8B899C895B
:100A4000009769F714C06D897E898F89988D0E94FF
:100A5000D824DC01CB019C8B8B8B8B899C89988B58
:100A60008F878F8598890197F1F7988B8F87A8E2F8
:100A7000B0E0E8E2F0E080818E7F8C93A8E2B0E005
:100A8000E8E2F0E080818D7F8C93E8E2F0E080E2A4
:100A90008083A8E2B0E0E8E2F0E0808184608C939B
:100AA00080E090E0A0EAB0E48B879C87AD87BE87AA
:100AB0006B857C858D859E852DEC3CEC4CE255E468
:100AC0000E94AE26DC01CB018F839887A987BA8765
:100AD0006F81788589859A8520E030E040E85FE382
:100AE0000E94B42888232CF481E090E09E838D83BB
:100AF0003FC06F81788589859A8520E03FEF4FE779
:100B000057E40E94542818164CF56B857C858D851A
:100B10009E8520E030E040E251E40E94AE26DC01F8
:100B2000CB01BC01CD010E94D824DC01CB019E8306
:100B30008D830FC084E191E09C838B838B819C81AA
:100B40000197F1F79C838B838D819E8101979E8312
:100B50008D838D819E81009769F714C06F817885A0
:100B600089859A850E94D824DC01CB019E838D83E0
:100B70008D819E819A83898389819A810197F1F77A
:100B80009A838983A8E2B0E0E8E2F0E080818B7F7D
:100B90008C93C059DF4F0FB6F894DEBF0FBECDBFA8
:100BA000CF91DF911F910F910895DF93CF93CDB730
:100BB000DEB72E970FB6F894DEBF0FBECDBF80E034
:100BC00090E0A0E8BFE38B879C87AD87BE876B85ED
:100BD0007C858D859E852DEC3CEC4CE255E40E9495
:100BE000AE26DC01CB018F839887A987BA876F81F6
:100BF000788589859A8520E030E040E85FE30E94AF
:100C0000B42888232CF481E090E09E838D833FC03C
:100C10006F81788589859A8520E03FEF4FE757E41B
:100C20000E94542818164CF56B857C858D859E8511
:100C300020E030E040E251E40E94AE26DC01CB012E
:100C4000BC01CD010E94D824DC01CB019E838D83A1
:100C50000FC084E191E09C838B838B819C81019701
:100C6000F1F79C838B838D819E8101979E838D8379
:100C70008D819E81009769F714C06F817885898581
:100C80009A850E94D824DC01CB019E838D838D81BF
:100C90009E819A83898389819A810197F1F79A834A
:100CA000898388E20E94690681E00E94690686E0E5
:100CB0000E9469068EE00E94690680E80E9469062B
:100CC0002E960FB6F894DEBF0FBECDBFCF91DF9149
:100CD0000895DF93CF93CDB7DEB76E970FB6F89434
:100CE000DEBF0FBECDBF8E8F8E8D8D8F8D8D807FA1
:100CF0008D8FA8E2B0E0E8E2F0E080818F708C9305
:100D0000A8E2B0E0E8E2F0E090818D8D892B8C9331
:100D1000A8E2B0E0E8E2F0E080818E7F8C93A8E268
:100D2000B0E0E8E2F0E080818D7F8C93A8E2B0E053
:100D3000E8E2F0E0808184608C9380E090E0A0EABB
:100D4000B0E4898F9A8FAB8FBC8F698D7A8D8B8D34
:100D50009C8D2DEC3CEC4CE255E40E94AE26DC016F
:100D6000CB018D8B9E8BAF8BB88F6D897E898F89E0
:100D7000988D20E030E040E85FE30E94B4288823AB
:100D80002CF481E090E09C8B8B8B3FC06D897E8939
:100D90008F89988D20E03FEF4FE757E40E94542859
:100DA00018164CF5698D7A8D8B8D9C8D20E030E086
:100DB00040E251E40E94AE26DC01CB01BC01CD0132
:100DC0000E94D824DC01CB019C8B8B8B0FC084E16B
:100DD00091E09A8B898B89899A890197F1F79A8B8F
:100DE000898B8B899C8901979C8B8B8B8B899C89A8
:100DF000009769F714C06D897E898F89988D0E944C
:100E0000D824DC01CB019C8B8B8B8B899C89988BA4
:100E10008F878F8598890197F1F7988B8F87A8E244
:100E2000B0E0E8E2F0E080818B7F8C938E8D8F7054
:100E30008E8F8E8D8295807F8E8FA8E2B0E0E8E263
:100E4000F0E080818F708C93A8E2B0E0E8E2F0E0FF
:100E500090818E8D892B8C93A8E2B0E0E8E2F0E0DF
:100E600080818E7F8C93A8E2B0E0E8E2F0E08081A0
:100E70008D7F8C93A8E2B0E0E8E2F0E080818460AE
:100E80008C9380E090E0A0EAB0E48B879C87AD87EC
:100E9000BE876B857C858D859E852DEC3CEC4CE278
:100EA00055E40E94AE26DC01CB018F839887A98789
:100EB000BA876F81788589859A8520E030E040E89F
:100EC0005FE30E94B42888232CF481E090E09E83A5
:100ED0008D833FC06F81788589859A8520E03FEFBB
:100EE0004FE757E40E94542818164CF56B857C8513
:100EF0008D859E8520E030E040E251E40E94AE26E0
:100F0000DC01CB01BC01CD010E94D824DC01CB0166
:100F10009E838D830FC084E191E09C838B838B81C2
:100F20009C810197F1F79C838B838D819E81019732
:100F30009E838D838D819E81009769F714C06F8198
:100F4000788589859A850E94D824DC01CB019E830F
:100F50008D838D819E819A83898389819A8101976E
:100F6000F1F79A838983A8E2B0E0E8E2F0E08081BB
:100F70008B7F8C936E960FB6F894DEBF0FBECDBFFD
:100F8000CF91DF910895DF93CF93CDB7DEB76E9702
:100F90000FB6F894DEBF0FBECDBF8E8F8E8D8D8FB6
:100FA0008D8D807F8D8FA8E2B0E0E8E2F0E0808157
:100FB0008F708C93A8E2B0E0E8E2F0E090818D8D34
:100FC000892B8C93A8E2B0E0E8E2F0E080818160B8
:100FD0008C93A8E2B0E0E8E2F0E080818D7F8C9312
:100FE000A8E2B0E0E8E2F0E0808184608C9380E0E9
:100FF00090E0A0EAB0E4898F9A8FAB8FBC8F698DA7
:101000007A8D8B8D9C8D2DEC3CEC4CE255E40E944E
:10101000AE26DC01CB018D8B9E8BAF8BB88F6D899B
:101020007E898F89988D20E030E040E85FE30E9460
:10103000B42888232CF481E090E09C8B8B8B3FC0FC
:101040006D897E898F89988D20E03FEF4FE757E4C7
:101050000E94542818164CF5698D7A8D8B8D9C8DC5
:1010600020E030E040E251E40E94AE26DC01CB01FA
:10107000BC01CD010E94D824DC01CB019C8B8B8B61
:101080000FC084E191E09A8B898B89899A890197B5
:10109000F1F79A8B898B8B899C8901979C8B8B8B21
:1010A0008B899C89009769F714C06D897E898F8927
:1010B000988D0E94D824DC01CB019C8B8B8B8B8973
:1010C0009C89988B8F878F8598890197F1F7988BEA
:1010D0008F87A8E2B0E0E8E2F0E080818B7F8C931C
:1010E0008E8D8F708E8F8E8D8295807F8E8FA8E2F1
:1010F000B0E0E8E2F0E080818F708C93A8E2B0E08D
:10110000E8E2F0E090818E8D892B8C93A8E2B0E02C
:10111000E8E2F0E0808181608C93A8E2B0E0E8E250
:10112000F0E080818D7F8C93A8E2B0E0E8E2F0E00F
:10113000808184608C9380E090E0A0EAB0E48B87AB
:101140009C87AD87BE876B857C858D859E852DECC4
:101150003CEC4CE255E40E94AE26DC01CB018F83CF
:101160009887A987BA876F81788589859A8520E0D5
:1011700030E040E85FE30E94B42888232CF481E04B
:1011800090E09E838D833FC06F81788589859A85A5
:1011900020E03FEF4FE757E40E94542818164CF523
:1011A0006B857C858D859E8520E030E040E251E4B2
:1011B0000E94AE26DC01CB01BC01CD010E94D824E7
:1011C000DC01CB019E838D830FC084E191E09C8381
:1011D0008B838B819C810197F1F79C838B838D811D
:1011E0009E8101979E838D838D819E81009769F7F3
:1011F00014C06F81788589859A850E94D824DC0186
:10120000CB019E838D838D819E819A838983898181
:101210009A810197F1F79A838983A8E2B0E0E8E226
:10122000F0E080818B7F8C936E960FB6F894DEBFD2
:101230000FBECDBFCF91DF910895DF93CF93CDB790
:10124000DEB780E80E946906CF91DF910895DF93B1
:10125000CF930F920F92CDB7DEB79A8389830AC0DE
:10126000E981FA8180810E94C30789819A81019670
:101270009A838983E981FA818081882389F70F9095
:101280000F90CF91DF910895DF93CF9300D00F920D
:10129000CDB7DEB789836A838981282F30E03C830C
:1012A0002B838B819C8182309105D9F02B813C81ED
:1012B0002330310534F48B819C818130910561F0BC
:1012C0001EC02B813C812330310581F08B819C81B4
:1012D0008430910581F013C08A8181580E9469068B
:1012E0000EC08A8181540E94690609C08A818D5688
:1012F0000E94690604C08A818D520E9469060F907F
:101300000F900F900F90CF91DF910895DF93CF93BF
:10131000CDB7DEB727970FB6F894DEBF0FBECDBFAF
:101320008A836B835D834C833F832E8319828A81FA
:10133000882319F08B81882319F40E941D0904C0A9
:101340008A816B810E9444098E819F81853091053D
:1013500019F089818130A9F48C819D8120E137E2E7
:10136000B9010E94042CCB01C0969093180380937E
:10137000170380911703909118030E94C30781E01F
:1013800089838E819F818430910519F08981813014
:1013900011F58C819D8128EE33E0B9010E94042C67
:1013A000CB019093200380931F0380911F039091A2
:1013B00020032AE030E0B9010E94042CC0969093EB
:1013C000500380934F0380914F03909150030E94EC
:1013D000C30781E089838E819F818330910519F055
:1013E0008981813011F58C819D8124E630E0B9013D
:1013F0000E94042CCB019093200380931F038091C3
:101400001F03909120032AE030E0B9010E94042CD0
:10141000C09690934403809343038091430390913B
:1014200044030E94C30781E089838E819F818230BB
:10143000910519F08981813011F58C819D812AE017
:1014400030E0B9010E94042CCB01909320038093DB
:101450001F0380911F03909120032AE030E0B9011F
:101460000E94042CC09690933403809333038091A0
:101470003303909134030E94C30781E089838E81F6
:101480009F818130910519F08981813091F48C819F
:101490009D812AE030E0B9010E94042CC09690930F
:1014A0004E0380934D0380914D0390914E030E9413
:1014B000C3078E819F81863091051CF085E40E94D0
:1014C000C30727960FB6F894DEBF0FBECDBFCF91EE
:1014D000DF910895DF93CF93CDB7DEB7A7E2B0E0F9
:1014E000E7E2F0E08081876F8C93A8E2B0E0E8E269
:1014F000F0E0808180788C93CF91DF910895DF9325
:10150000CF93CDB7DEB7E0E3F0E01082E1E3F0E0A7
:101510001082E7E0F1E01082E8E0F1E01082CF9184
:10152000DF910895DF93CF93CDB7DEB70E946A0AAB
:101530000E947F0ACF91DF910895DF93CF93CDB7BB
:10154000DEB7EAE7F0E01082EBE7F0E01082ECE7CC
:10155000F0E080E28083E0E5F0E080E88083EAE785
:10156000F0E086E88083CF91DF910895DF93CF93F9
:10157000CDB7DEB7F8940E94920A0E949D0A789433
:10158000CF91DF910895DF93CF930F920F92CDB754
:10159000DEB78A838A81883020F0EBE7F0E088E0CC
:1015A00080838A8187708A83ECE7F0E08A81806299
:1015B0008083AAE7B0E0EAE7F0E0808180648C9362
:1015C000EAE7F0E08081882F90E0807190700097CA
:1015D000B9F3E9E7F0E080818983AAE7B0E0EAE7C0
:1015E000F0E0808180618C93EBE7F0E010828981EC
:1015F0000F900F90CF91DF910895DF93CF93CDB7E8
:10160000DEB727970FB6F894DEBF0FBECDBF8F832E
:101610008F81882F90E0A0E0B0E0BC01CD010E9456
:101620009629DC01CB01BC01CD012FEE39EC43E959
:101630005FE30E944F2CDC01CB019C01AD0160E017
:1016400070E080E89FE30E94A827DC01CB01BC0189
:10165000CD012AE939EF4EE255E40E94AE26DC01C5
:10166000CB01BC01CD0120E030E040E251E40E941A
:10167000AE26DC01CB01BC01CD010E944229DC0178
:10168000CB01AA2797FDA095BA2FBC01CD010E94DE
:10169000E428DC01CB018B839C83AD83BE836B810B
:1016A0007C818D819E810E944229DC01CB019A833D
:1016B000898389819A8123E08132920720F080E238
:1016C00093E09A83898389819A8127960FB6F8944B
:1016D000DEBF0FBECDBFCF91DF910895DF93CF93D3
:1016E000CDB7DEB7E1E2F0E08FE08083E2E2F0E048
:1016F0001082EAE0F1E088E18083EBE0F1E088E14C
:101700008083EDE2F0E01082EEE2F0E080E380839F
:10171000CF91DF910895DF93CF93CDB7DEB7E1E2AC
:10172000F1E08BE08083E0E2F1E089EA8083E9E2A6
:10173000F1E01082E8E2F1E01082EBE2F1E01082E9
:10174000EAE2F1E01082EDE2F1E01082ECE2F1E099
:101750001082CF91DF910895DF93CF930F92CDB791
:10176000DEB78983E8E2F1E0898180830F90CF9131
:10177000DF910895DF93CF930F92CDB7DEB78983C2
:10178000EAE2F1E0898180830F90CF91DF910895A3
:10179000DF93CF93CDB7DEB7F894EAE6F0E08AE0C6
:1017A0008083EDE3F0E080E380837894CF91DF9154
:1017B0000895DF93CF93CDB7DEB7E2E2F0E086E0A5
:1017C0008083CF91DF910895DF93CF93CDB7DEB7BC
:1017D000E2E2F0E089E08083CF91DF910895DF932A
:1017E000CF93CDB7DEB7E2E2F0E085E08083CF9122
:1017F000DF910895DF93CF93CDB7DEB7E2E2F0E05B
:1018000084E08083CF91DF910895DF93CF93CDB7AC
:10181000DEB7E2E2F0E081E08083CF91DF910895CE
:10182000DF93CF93CDB7DEB7E2E2F0E08AE08083CA
:10183000CF91DF910895DF93CF93CDB7DEB7E2E28A
:10184000F0E082E08083CF91DF910895DF93CF9322
:10185000CDB7DEB7E2E2F0E088E08083CF91DF91A0
:101860000895DF93CF93CDB7DEB7E2E2F0E01082C8
:10187000CF91DF9108951F920F920FB60F9211240E
:101880008F939F93DF93CF93CDB7DEB780912D03D6
:1018900090912E03019690932E0380932D03CF9168
:1018A000DF919F918F910F900FBE0F901F90189511
:1018B0001F920F920FB60F9211248F939F93DF9375
:1018C000CF93CDB7DEB780914B0390914C03019637
:1018D00090934C0380934B03CF91DF919F918F9115
:1018E0000F900FBE0F901F901895DF93CF93CDB739
:1018F000DEB72C970FB6F894DEBF0FBECDBF9A8728
:10190000898780E090E0A0E0B0E08D839E83AF8384
:10191000B88719821A821B821C8289859A85CC011C
:10192000A0E0B0E0BC01CD010E949629DC01CB0112
:10193000BC01CD0128E431EE42E850E40E94A82722
:10194000DC01CB018D839E83AF83B8876D817E815F
:101950008F8198850E94D824DC01CB01CC01A0E0C6
:10196000B0E089839A83AB83BC8310924C031092BE
:101970004B0310922E0310922D0380914B039091F4
:101980004C039C0140E050E01C8689819A81AB8128
:10199000BC81281739074A075B0710F081E08C8764
:1019A00080912D0390912E039C0140E050E01B8616
:1019B00089819A81AB81BC81281739074A075B0767
:1019C00010F091E09B878C859B85892B8823A9F259
:1019D0000E94310C2C960FB6F894DEBF0FBECDBF1F
:1019E000CF91DF910895DF93CF93CDB7DEB72A97DC
:1019F0000FB6F894DEBF0FBECDBF9A87898780E00F
:101A000090E0A0E0B0E08D839E83AF83B887198219
:101A10001A821B821C8289859A85CC01A0E0B0E0E5
:101A2000BC01CD010E949629DC01CB01BC01CD0196
:101A300025EE30ED4AEA50E40E94A827DC01CB01F4
:101A40008D839E83AF83B8876D817E818F819885DA
:101A50000E94D824DC01CB0189839A83AB83BC83A9
:101A600010924C0310924B0380914B0390914C03C6
:101A70009C0140E050E089819A81AB81BC81821752
:101A80009307A407B50780F70E94310C2A960FB67A
:101A9000F894DEBF0FBECDBFCF91DF910895DF93E5
:101AA000CF93CDB7DEB7A4E2B0E0E4E2F0E080810E
:101AB00080628C93A5E2B0E0E5E2F0E08081806294
:101AC0008C93CF91DF910895DF93CF93CDB7DEB79D
:101AD000A4E2B0E0E4E2F0E0808180648C93A5E2CF
:101AE000B0E0E5E2F0E0808180648C93CF91DF91FB
:101AF0000895DF93CF93CDB7DEB7A4E2B0E0E4E280
:101B0000F0E0808180688C93A5E2B0E0E5E2F0E04F
:101B1000808180688C93CF91DF910895DF93CF937C
:101B2000CDB7DEB70E944F0D0E94640D0E94790D63
:101B3000CF91DF910895DF93CF93CDB7DEB7E1E882
:101B4000F0E01082E5E8F0E08CEF8083E4E8F0E07C
:101B500081E08083E9E8F0E083E08083E8E8F0E07A
:101B60008FEF8083EBE8F0E083E08083EAE8F0E049
:101B70008FEF8083EDE8F0E083E08083ECE8F0E035
:101B80008FEF8083E7E8F0E083E08083E6E8F0E031
:101B90008FEF8083E0E8F0E08BEA8083E2E8F0E01A
:101BA0001082E1E8F0E08CE08083CF91DF9108952E
:101BB000DF93CF93CDB7DEB7F8940E948E0D0E94CD
:101BC0009B0D7894CF91DF9108950F931F93DF932E
:101BD000CF9300D00F920F92CDB7DEB78D8380E008
:101BE00090E0A0E0B0E089839A83AB83BC838D81D1
:101BF000882F90E0A0E0B0E0BC01CD010E949629C2
:101C0000DC01CB01BC01CD0120E030E040E150E43B
:101C10000E94A827DC01CB01BC01CD0120E030E00F
:101C200048EA51E40E948126DC01CB0189839A8332
:101C3000AB83BC83E9E8F0E0108208E810E069813A
:101C40007A818B819C810E94D824DC01CB01F80130
:101C500080830F900F900F900F900F90CF91DF9196
:101C60001F910F9108950F931F93DF93CF9300D08F
:101C70000F920F92CDB7DEB78D8380E090E0A0E0A9
:101C8000B0E089839A83AB83BC838D81882F90E0F9
:101C9000A0E0B0E0BC01CD010E949629DC01CB019F
:101CA000BC01CD0120E030E040E150E40E94A827D3
:101CB000DC01CB01BC01CD0120E030E048EA51E479
:101CC0000E948126DC01CB0189839A83AB83BC838C
:101CD000EBE8F0E010820AE810E069817A818B81FC
:101CE0009C810E94D824DC01CB01F80180830F90F5
:101CF0000F900F900F900F90CF91DF911F910F9148
:101D000008950F931F93DF93CF9300D00F920F92FC
:101D1000CDB7DEB78D8380E090E0A0E0B0E08983AE
:101D20009A83AB83BC838D81882F90E0A0E0B0E0E4
:101D3000BC01CD010E949629DC01CB01BC01CD0183
:101D400020E030E040E150E40E94A827DC01CB0114
:101D5000BC01CD0120E030E048EA51E40E94812638
:101D6000DC01CB0189839A83AB83BC83EDE8F0E08F
:101D700010820CE810E069817A818B819C810E943D
:101D8000D824DC01CB01F80180830F900F900F90D5
:101D90000F900F90CF91DF911F910F910895DF93D6
:101DA000CF93CDB7DEB7E9E8F0E083E08083E8E8E1
:101DB000F0E08FEF8083CF91DF910895DF93CF9391
:101DC000CDB7DEB7EBE8F0E083E08083EAE8F0E04F
:101DD0008FEF8083CF91DF910895DF93CF93CDB7BD
:101DE000DEB7EDE8F0E083E08083ECE8F0E08FEF31
:101DF0008083CF91DF910895DF93CF93CDB7DEB786
:101E0000E1ECF0E01082E0ECF0E01082E2ECF0E0D7
:101E100086E08083E4ECF0E087E48083E5ECF0E0AA
:101E20001082E1ECF0E088E98083CF91DF910895A2
:101E30001F920F920FB60F9200905B000F92112429
:101E40008F939F93EF93FF93DF93CF93CDB7DEB73D
:101E5000E6ECF0E0808180933A038091000290915B
:101E60000102009749F480913A03803329F4E6ECAB
:101E7000F0E085E480830BC0809100029091010224
:101E80008130910521F4E6ECF0E080E380838091DD
:101E90003A03823459F4E6ECF0E082E5808381E095
:101EA00090E0909311038093100322C080913A0335
:101EB000833459F4E6ECF0E082E5808381E090E041
:101EC000909311038093100313C080913A038434DC
:101ED00059F4E6ECF0E082E5808381E090E09093B5
:101EE00011038093100304C0E6ECF0E080E38083EC
:101EF000CF91DF91FF91EF919F918F910F90009281
:101F00005B000F900FBE0F901F901895DF93CF933B
:101F1000CDB7DEB7F8940E94FC0E7894CF91DF9194
:101F200008950F931F93DF93CF93CDB7DEB7C254BD
:101F3000D1400FB6F894DEBF0FBECDBF0E94B60AE7
:101F40000E94D80D0E948B0B0E946E0B0E94D6003F
:101F50000E94D5050E94C80B0E94FC0E84EB0E94D3
:101F6000E50DFE01E15CFE4F80E090E0A8E4B3E403
:101F700080839183A283B3838E01055C1E4FFE0193
:101F8000E15CFE4F60817181828193812DEC3CEC9C
:101F90004CE255E40E94AE26DC01CB01F8018083BF
:101FA0009183A283B383FE01E55CFE4F6081718162
:101FB0008281938120E030E040E85FE30E94B42812
:101FC000882344F4FE01E75CFE4F81E090E09183BA
:101FD000808364C0FE01E55CFE4F60817181828177
:101FE000938120E03FEF4FE757E40E9454281816F2
:101FF0000CF043C0FE01E15CFE4F60817181828183
:10200000938120E030E040E251E40E94AE26DC0102
:10201000CB018E01075C1E4FBC01CD010E94D8246C
:10202000DC01CB01F801918380831FC0FE01E95CD4
:10203000FE4F84E191E091838083FE01E95CFE4FD5
:10204000808191810197F1F7FE01E95CFE4F918358
:102050008083DE01A75CBE4FFE01E75CFE4F8081FE
:102060009181019711969C938E93FE01E75CFE4F40
:10207000808191810097D1F627C08E01075C1E4FA9
:10208000FE01E55CFE4F60817181828193810E9437
:10209000D824DC01CB01F80191838083DE01AB5CA5
:1020A000BE4FFE01E75CFE4F808191818D939C9332
:1020B000FE01EB5CFE4F808191810197F1F7FE01FB
:1020C000EB5CFE4F9183808382E30E94330EFE011E
:1020D000EF5CFE4F80E090E0A8E4B3E4808391835E
:1020E000A283B3838E01035D1E4FFE01EF5CFE4FA2
:1020F00060817181828193812DEC3CEC4CE255E44E
:102100000E94AE26DC01CB01F80180839183A2837B
:10211000B383FE01E35DFE4F608171818281938113
:1021200020E030E040E85FE30E94B428882344F4D4
:10213000FE01E55DFE4F81E090E09183808364C005
:10214000FE01E35DFE4F608171818281938120E019
:102150003FEF4FE757E40E94542818160CF043C095
:10216000FE01EF5CFE4F608171818281938120E0EE
:1021700030E040E251E40E94AE26DC01CB018E014A
:10218000055D1E4FBC01CD010E94D824DC01CB01AE
:10219000F801918380831FC0FE01E75DFE4F84E15B
:1021A00091E091838083FE01E75DFE4F8081918104
:1021B0000197F1F7FE01E75DFE4F91838083DE0119
:1021C000A55DBE4FFE01E55DFE4F808191810197C7
:1021D00011969C938E93FE01E55DFE4F8081918167
:1021E0000097D1F627C08E01055D1E4FFE01E35D0D
:1021F000FE4F60817181828193810E94D824DC012D
:10220000CB01F80191838083DE01A95DBE4FFE0101
:10221000E55DFE4F808191818D939C93FE01E95D88
:10222000FE4F808191810197F1F7FE01E95DFE4F3C
:102230009183808385E50E94810E84E90E94AC0B26
:1022400080EA0E94BA0B0E94D90B81E090E0909343
:1022500001028093000210920B0310920A03109265
:102260000D0310920C0310920F0310920E031092A4
:1022700011031092100389E00E94C30A80933C036B
:1022800080913C030E94FD0A909342038093410396
:10229000209141033091420382E061E0A90123E0F3
:1022A00030E00E9486098DE00E94C30A80933B03C0
:1022B00080913B030E94FD0A9093400380933F036B
:1022C00020913F033091400382E06DE0A90123E0BB
:1022D00030E00E9486098AE00E94C30A8093350399
:1022E000809135030E94FD0A90934A03809349032D
:1022F0002091490330914A0381E061E0A90123E084
:1023000030E00E9486098BE00E94C30A8093190383
:10231000809119030E94FD0A90932A038093290358
:102320002091290330912A0381E067E0A90123E08D
:1023300030E00E94860981E00E94C30A882F90E065
:10234000A0E0B0E0BC01CD010E949629DC01CB01E8
:102350008093360390933703A0933803B0933903E7
:1023600082E00E94C30A882F90E0A0E0B0E0BC01A8
:10237000CD010E949629DC01CB0180934503909307
:102380004603A0934703B093480383E00E94C30A27
:10239000882F90E0A0E0B0E0BC01CD010E9496291A
:1023A000DC01CB018093130390931403A0931503D6
:1023B000B09316038091360390913703A0913803B0
:1023C000B0913903BC01CD0120E030E040EF51E491
:1023D0000E94B42888239CF08091130390911403E9
:1023E000A0911503B0911603BC01CD0120E030E0AF
:1023F00040EF51E40E94B42888230CF0EBC089E040
:102400000E94C30A80933C0380913C030E94FD0A12
:102410009093420380934103209141033091420302
:1024200082E061E0A90123E030E00E9486098DE0AE
:102430000E94C30A80933B0380913B030E94FD0AE4
:102440009093400380933F0320913F0330914003DA
:1024500082E06DE0A90123E030E00E9486098AE075
:102460000E94C30A80933503809135030E94FD0AC0
:1024700090934A03809349032091490330914A0382
:1024800081E061E0A90123E030E00E9486098BE051
:102490000E94C30A80931903809119030E94FD0AC8
:1024A00090932A03809329032091290330912A03D2
:1024B00081E067E0A90123E030E00E94860981E025
:1024C0000E94C30A882F90E0A0E0B0E0BC01CD01DB
:1024D0000E949629DC01CB01809336039093370349
:1024E000A0933803B093390382E00E94C30A882F77
:1024F00090E0A0E0B0E0BC01CD010E949629DC0193
:10250000CB018093450390934603A0934703B09378
:10251000480383E00E94C30A882F90E0A0E0B0E067
:10252000BC01CD010E949629DC01CB0180931303ED
:1025300090931403A0931503B09316030E94D90B34
:1025400080910C0390910D03817090700097E9F4D5
:102550000E94E40B86E990E00E94F30C0E94310C8B
:102560000E94100C8AE590E00E94750C0E94D90B25
:102570008AEF90E00E94F30C0E94D90B0E94100C8D
:102580008AE590E00E94750C1CC00E94E40B86E96D
:1025900090E00E94F30C0E94310C0E94EF0B8AE540
:1025A00090E00E94750C0E94D90B8AEF90E00E9487
:1025B000F30C0E94D90B0E94EF0B8AE590E00E9479
:1025C000750C80910C0390910D03019690930D036F
:1025D00080930C038091410390914203873E9105C3
:1025E00040F08091410390914203F1E08E309F07CB
:1025F00098F080913F0390914003873E910510F43D
:102600000C94D42480913F039091400321E08E30BC
:10261000920710F00C94D4240E94310C10923E03C7
:1026200010923D031092200310921F0380914103EA
:1026300090914203E1E08E309E0708F04AC28091FB
:10264000410390914203873E910508F442C281E024
:1026500090E090930B0380930A0380914103909143
:1026600042039093200380931F030E94D90B0E9482
:10267000EF0B80E590E00E94750C8AE00E94C30A8F
:1026800080933503809135030E94FD0A90934A039D
:10269000809349032091490330914A0381E061E02E
:1026A000A90123E030E00E9486098BE00E94C30A62
:1026B00080931903809119030E94FD0A90932A03C5
:1026C000809329032091290330912A0381E067E058
:1026D000A90123E030E00E94860980911F039091B8
:1026E00020039C01285230408091490390914A0375
:1026F00028173907D0F080911F03909120039C0187
:10270000285230408091290390912A0328173907D5
:1027100060F02091290330912A0380914903909120
:102720004A032817390708F4F3C080913D039091BC
:102730003E03019690933E0380933D030E94D90B84
:102740000E94FA0BFE01ED5DFE4F80E090E0A8ECE8
:10275000B2E480839183A283B3838E01015E1E4F16
:10276000FE01ED5DFE4F60817181828193812DECD0
:102770003CEC4CE255E40E94AE26DC01CB01F801B2
:1027800080839183A283B383FE01E15EFE4F60816B
:1027900071818281938120E030E040E85FE30E9414
:1027A000B428882344F4FE01E35EFE4F81E090E00C
:1027B0009183808364C0FE01E15EFE4F6081718180
:1027C0008281938120E03FEF4FE757E40E94542835
:1027D00018160CF043C0FE01ED5DFE4F6081718163
:1027E0008281938120E030E040E251E40E94AE26F5
:1027F000DC01CB018E01035E1E4FBC01CD010E94A6
:10280000D824DC01CB01F801918380831FC0FE0135
:10281000E55EFE4F84E191E091838083FE01E55EF9
:10282000FE4F808191810197F1F7FE01E55EFE4F39
:1028300091838083DE01A35EBE4FFE01E35EFE4F07
:1028400080819181019711969C938E93FE01E35EA6
:10285000FE4F808191810097D1F627C08E01035EE3
:102860001E4FFE01E15EFE4F608171818281938186
:102870000E94D824DC01CB01F80191838083DE0122
:10288000A75EBE4FFE01E35EFE4F808191818D9376
:102890009C93FE01E75EFE4F808191810197F1F7E5
:1028A000FE01E75EFE4F918380830E94310C8AE037
:1028B0000E94C30A80933503809135030E94FD0A6C
:1028C00090934A03809349032091490330914A032E
:1028D00081E061E0A90123E030E00E9486098BE0FD
:1028E0000E94C30A80931903809119030E94FD0A74
:1028F00090932A03809329032091290330912A037E
:1029000081E067E0A90123E030E00E948609E5CE7E
:102910000E94310CFE01EB5EFE4F80E090E0AAE7E2
:10292000B4E480839183A283B3838E010F5E1E4F34
:10293000FE01EB5EFE4F60817181828193812DECFF
:102940003CEC4CE255E40E94AE26DC01CB01F801E0
:1029500080839183A283B383FE01EF5EFE4F60818B
:1029600071818281938120E030E040E85FE30E9442
:10297000B428882344F4FE01E15FFE4F81E090E03B
:102980009183808364C0FE01EF5EFE4F60817181A0
:102990008281938120E03FEF4FE757E40E94542863
:1029A00018160CF043C0FE01EB5EFE4F6081718192
:1029B0008281938120E030E040E251E40E94AE2623
:1029C000DC01CB018E01015F1E4FBC01CD010E94D5
:1029D000D824DC01CB01F801918380831FC0FE0164
:1029E000E35FFE4F84E191E091838083FE01E35F2A
:1029F000FE4F808191810197F1F7FE01E35FFE4F69
:102A000091838083DE01A15FBE4FFE01E15FFE4F37
:102A100080819181019711969C938E93FE01E15FD5
:102A2000FE4F808191810097D1F628C08E01015F11
:102A30001E4FFE01EF5EFE4F6081718182819381A6
:102A40000E94D824DC01CB01F80191838083DE0150
:102A5000A55FBE4FFE01E15FFE4F8081918111961F
:102A60009C938E93FE01E55FFE4F808191810197DB
:102A7000F1F7FE01E55FFE4F9183808380911F0394
:102A8000909120039C0128523040809149039091FD
:102A90004A032817390708F420CE80911F0390912C
:102AA00020039C01285230408091290390912A03F1
:102AB0002817390708F411CE2091290330912A03F1
:102AC0008091490390914A032817390708F005CEF1
:102AD00047C280913F0390914003F1E08E309F0701
:102AE00008F03EC280913F0390914003873E9105DC
:102AF00008F436C282E090E090930B0380930A03BF
:102B000080913F03909140039093200380931F0393
:102B10000E94D90B0E94100C80E590E00E94750C79
:102B20008AE00E94C30A80933503809135030E9496
:102B3000FD0A90934A038093490320914903309101
:102B40004A0381E061E0A90123E030E00E948609A8
:102B50008BE00E94C30A80931903809119030E949D
:102B6000FD0A90932A038093290320912903309131
:102B70002A0381E067E0A90123E030E00E94860992
:102B800080911F03909120039C0128523040809136
:102B9000490390914A032817390778F080911F0361
:102BA000909120039C0128523040809129039091FC
:102BB0002A032817390708F0F3C080913D0390914C
:102BC0003E03019690933E0380933D030E94D90BF0
:102BD0000E941B0CFE01E95FFE4F80E090E0A8EC34
:102BE000B2E480839183A283B3838E010D5F1E4F75
:102BF000FE01E95FFE4F60817181828193812DEC3E
:102C00003CEC4CE255E40E94AE26DC01CB01F8011D
:102C100080839183A283B383FE01ED5FFE4F6081C9
:102C200071818281938120E030E040E85FE30E947F
:102C3000B428882344F4FE01EF5FFE4F81E090E06A
:102C40009183808364C0FE01ED5FFE4F60817181DE
:102C50008281938120E03FEF4FE757E40E945428A0
:102C600018160CF043C0FE01E95FFE4F60817181D0
:102C70008281938120E030E040E251E40E94AE2660
:102C8000DC01CB018E010F5F1E4FBC01CD010E9404
:102C9000D824DC01CB01F801918380831FC0FE01A1
:102CA000E150FF4F84E191E091838083FE01E15088
:102CB000FF4F808191810197F1F7FE01E150FF4FB5
:102CC00091838083DE01AF5FBE4FFE01EF5FFE4F59
:102CD00080819181019711969C938E93FE01EF5F05
:102CE000FE4F808191810097D1F627C08E010F5F42
:102CF0001E4FFE01ED5FFE4F6081718182819381E5
:102D00000E94D824DC01CB01F80191838083DE018D
:102D1000A350BF4FFE01EF5FFE4F808191818D93E5
:102D20009C93FE01E350FF4F808191810197F1F761
:102D3000FE01E350FF4F918380830E94310C8AE0B3
:102D40000E94C30A80933503809135030E94FD0AD7
:102D500090934A03809349032091490330914A0399
:102D600081E061E0A90123E030E00E9486098BE068
:102D70000E94C30A80931903809119030E94FD0ADF
:102D800090932A03809329032091290330912A03E9
:102D900081E067E0A90123E030E00E948609F0CEDF
:102DA0000E94310CFE01E750FF4F80E090E0AAE75F
:102DB000B4E480839183A283B3838E010B501F4FB1
:102DC000FE01E750FF4F60817181828193812DEC7C
:102DD0003CEC4CE255E40E94AE26DC01CB01F8014C
:102DE00080839183A283B383FE01EB50FF4F608108
:102DF00071818281938120E030E040E85FE30E94AE
:102E0000B428882344F4FE01ED50FF4F81E090E0A8
:102E10009183808364C0FE01EB50FF4F608171811C
:102E20008281938120E03FEF4FE757E40E945428CE
:102E300018160CF043C0FE01E750FF4F608171810E
:102E40008281938120E030E040E251E40E94AE268E
:102E5000DC01CB018E010D501F4FBC01CD010E9442
:102E6000D824DC01CB01F801918380831FC0FE01CF
:102E7000EF50FF4F84E191E091838083FE01EF509A
:102E8000FF4F808191810197F1F7FE01EF50FF4FD5
:102E900091838083DE01AD50BF4FFE01ED50FF4FA7
:102EA00080819181019711969C938E93FE01ED5044
:102EB000FF4F808191810097D1F628C08E010D507F
:102EC0001F4FFE01EB50FF4F608171818281938122
:102ED0000E94D824DC01CB01F80191838083DE01BC
:102EE000A151BF4FFE01ED50FF4F8081918111969E
:102EF0009C938E93FE01E151FF4F80819181019758
:102F0000F1F7FE01E151FF4F9183808380911F0310
:102F1000909120039C012852304080914903909168
:102F20004A032817390708F42BCE80911F0390918C
:102F300020039C01285230408091290390912A035C
:102F40002817390708F41CCE2091290330912A0351
:102F50008091490390914A032817390708F010CE51
:102F60008BE00E94C30A80931903809119030E9489
:102F7000FD0A90932A03809329032091290330911D
:102F80002A0381E067E0A90123E030E00E9486097E
:102F90008AE00E94C30A80933503809135030E9422
:102FA000FD0A90934A03809349032091490330918D
:102FB0004A0381E061E0A90123E030E00E94860934
:102FC0002091290330912A038091490390914A036B
:102FD0008217930758F08091290390912A03825514
:102FE0009040909328038093270315C020912903D4
:102FF00030912A038091490390914A0382179307E5
:1030000050F48091490390914A03825590409093E7
:103010002803809327038091290390912A03873EF8
:10302000910578F010920F0310920E030E94D90BB5
:1030300080912703909128030E94F30C0E94310C89
:103040000EC010920F0310920E030E94D90B8091B4
:103050002703909128030E94F30C0E94310C809169
:1030600027039091280390932603809325031092C1
:10307000010210920002109211031092100380912D
:103080001003909111030097D1F380913A03823499
:1030900009F00DC585E50E94810EFE01E551FF4F47
:1030A00080E090E0AAEFB4E480839183A283B383AD
:1030B0008E0109511F4FFE01E551FF4F6081718163
:1030C000828193812DEC3CEC4CE255E40E94AE26CB
:1030D000DC01CB01F80180839183A283B383FE01DD
:1030E000E951FF4F608171818281938120E030E05E
:1030F00040E85FE30E94B428882344F4FE01EB51CA
:10310000FF4F81E090E09183808364C0FE01E9512C
:10311000FF4F608171818281938120E03FEF4FE713
:1031200057E40E94542818160CF043C0FE01E551E4
:10313000FF4F608171818281938120E030E040E225
:1031400051E40E94AE26DC01CB018E010B511F4FD2
:10315000BC01CD010E94D824DC01CB01F801918390
:1031600080831FC0FE01ED51FF4F84E191E0918308
:103170008083FE01ED51FF4F808191810197F1F72E
:10318000FE01ED51FF4F91838083DE01AB51BF4FB4
:10319000FE01EB51FF4F80819181019711969C9325
:1031A0008E93FE01EB51FF4F808191810097D1F604
:1031B00027C08E010B511F4FFE01E951FF4F608167
:1031C0007181828193810E94D824DC01CB01F801B6
:1031D00091838083DE01AF51BF4FFE01EB51FF4F62
:1031E000808191818D939C93FE01EF51FF4F8081EF
:1031F00091810197F1F7FE01EF51FF4F9183808399
:1032000089E60E94330EFE01E352FF4F80E090E01A
:10321000AAEFB4E480839183A283B3838E01075223
:103220001F4FFE01E352FF4F6081718182819381C4
:103230002DEC3CEC4CE255E40E94AE26DC01CB01C7
:10324000F80180839183A283B383FE01E752FF4F8D
:10325000608171818281938120E030E040E85FE30A
:103260000E94B428882344F4FE01E952FF4F81E014
:1032700090E09183808364C0FE01E752FF4F60813C
:1032800071818281938120E03FEF4FE757E40E94F4
:10329000542818160CF043C0FE01E352FF4F608122
:1032A00071818281938120E030E040E251E40E940C
:1032B000AE26DC01CB018E0109521F4FBC01CD01AE
:1032C0000E94D824DC01CB01F801918380831FC0C8
:1032D000FE01EB52FF4F84E191E091838083FE0178
:1032E000EB52FF4F808191810197F1F7FE01EB5284
:1032F000FF4F91838083DE01A952BF4FFE01E95247
:10330000FF4F80819181019711969C938E93FE01CE
:10331000E952FF4F808191810097D1F627C08E013D
:1033200009521F4FFE01E752FF4F60817181828178
:1033300093810E94D824DC01CB01F8019183808322
:10334000DE01AD52BF4FFE01E952FF4F80819181F6
:103350008D939C93FE01ED52FF4F808191810197E7
:10336000F1F7FE01ED52FF4F918380830E94D90B4C
:1033700082E390E00E94F30C0E94310C80E00E94F6
:10338000E50DFE01E153FF4F80E090E0AAEFB4E4C9
:1033900080839183A283B3838E0105531F4FFE0167
:1033A000E153FF4F60817181828193812DEC3CEC70
:1033B0004CE255E40E94AE26DC01CB01F80180838B
:1033C0009183A283B383FE01E553FF4F6081718136
:1033D0008281938120E030E040E85FE30E94B428DE
:1033E000882344F4FE01E753FF4F81E090E091838E
:1033F000808364C0FE01E553FF4F6081718182814B
:10340000938120E03FEF4FE757E40E9454281816BD
:103410000CF043C0FE01E153FF4F60817181828156
:10342000938120E030E040E251E40E94AE26DC01CE
:10343000CB018E0107531F4FBC01CD010E94D82440
:10344000DC01CB01F801918380831FC0FE01E953A9
:10345000FF4F84E191E091838083FE01E953FF4FA8
:10346000808191810197F1F7FE01E953FF4F91832C
:103470008083DE01A753BF4FFE01E753FF4F8081DA
:103480009181019711969C938E93FE01E753FF4F14
:10349000808191810097D1F627C08E0107531F4F7D
:1034A000FE01E553FF4F60817181828193810E940B
:1034B000D824DC01CB01F80191838083DE01AB537A
:1034C000BF4FFE01E753FF4F808191818D939C9305
:1034D000FE01EB53FF4F808191810197F1F7FE01CF
:1034E000EB53FF4F9183808381E40E94330EFE01F2
:1034F000EF53FF4F80E090E0AAEFB4E48083918324
:10350000A283B3838E0103541F4FFE01EF53FF4F7D
:1035100060817181828193812DEC3CEC4CE255E419
:103520000E94AE26DC01CB01F80180839183A28347
:10353000B383FE01E354FF4F6081718182819381E7
:1035400020E030E040E85FE30E94B428882344F4A0
:10355000FE01E554FF4F81E090E09183808364C0D9
:10356000FE01E354FF4F608171818281938120E0ED
:103570003FEF4FE757E40E94542818160CF043C061
:10358000FE01EF53FF4F608171818281938120E0C2
:1035900030E040E251E40E94AE26DC01CB018E0116
:1035A00005541F4FBC01CD010E94D824DC01CB0182
:1035B000F801918380831FC0FE01E754FF4F84E12F
:1035C00091E091838083FE01E754FF4F80819181D8
:1035D0000197F1F7FE01E754FF4F91838083DE01ED
:1035E000A554BF4FFE01E554FF4F808191810197A3
:1035F00011969C938E93FE01E554FF4F808191813B
:103600000097D1F627C08E0105541F4FFE01E354E9
:10361000FF4F60817181828193810E94D824DC01F7
:10362000CB01F80191838083DE01A954BF4FFE01D5
:10363000E554FF4F808191818D939C93FE01E95465
:10364000FF4F808191810197F1F7FE01E954FF4F0F
:10365000918380838EE10E94810EFE01ED54FF4F25
:1036600080E090E0AAEFB4E480839183A283B383E7
:103670008E0101551F4FFE01ED54FF4F6081718196
:10368000828193812DEC3CEC4CE255E40E94AE2605
:10369000DC01CB01F80180839183A283B383FE0117
:1036A000E155FF4F608171818281938120E030E09C
:1036B00040E85FE30E94B428882344F4FE01E35508
:1036C000FF4F81E090E09183808364C0FE01E1556B
:1036D000FF4F608171818281938120E03FEF4FE74E
:1036E00057E40E94542818160CF043C0FE01ED5414
:1036F000FF4F608171818281938120E030E040E260
:1037000051E40E94AE26DC01CB018E0103551F4F10
:10371000BC01CD010E94D824DC01CB01F8019183CA
:1037200080831FC0FE01E555FF4F84E191E0918346
:103730008083FE01E555FF4F808191810197F1F76C
:10374000FE01E555FF4F91838083DE01A355BF4FF6
:10375000FE01E355FF4F80819181019711969C9363
:103760008E93FE01E355FF4F808191810097D1F642
:1037700027C08E0103551F4FFE01E155FF4F6081A9
:103780007181828193810E94D824DC01CB01F801F0
:1037900091838083DE01A755BF4FFE01E355FF4FA4
:1037A000808191818D939C93FE01E755FF4F80812D
:1037B00091810197F1F7FE01E755FF4F91838083D7
:1037C00084EB0E94E50DFE01EB55FF4F80E090E099
:1037D000AAEFB4E480839183A283B3838E010F5553
:1037E0001F4FFE01EB55FF4F6081718182819381F4
:1037F0002DEC3CEC4CE255E40E94AE26DC01CB0102
:10380000F80180839183A283B383FE01EF55FF4FBC
:10381000608171818281938120E030E040E85FE344
:103820000E94B428882344F4FE01E156FF4F81E052
:1038300090E09183808364C0FE01EF55FF4F60816B
:1038400071818281938120E03FEF4FE757E40E942E
:10385000542818160CF043C0FE01EB55FF4F608151
:1038600071818281938120E030E040E251E40E9446
:10387000AE26DC01CB018E0101561F4FBC01CD01EC
:103880000E94D824DC01CB01F801918380831FC002
:10389000FE01E356FF4F84E191E091838083FE01B6
:1038A000E356FF4F808191810197F1F7FE01E356C6
:1038B000FF4F91838083DE01A156BF4FFE01E15689
:1038C000FF4F80819181019711969C938E93FE0109
:1038D000E156FF4F808191810097D1F627C08E017C
:1038E00001561F4FFE01EF55FF4F608171818281AC
:1038F00093810E94D824DC01CB01F801918380835D
:10390000DE01A556BF4FFE01E156FF4F8081918138
:103910008D939C93FE01E556FF4F80819181019725
:10392000F1F7FE01E556FF4F9183808385E50E9404
:10393000810EFE01E956FF4F80E090E0AAEFB4E46B
:1039400080839183A283B3838E010D561F4FFE01A6
:10395000E956FF4F60817181828193812DEC3CECAF
:103960004CE255E40E94AE26DC01CB01F8018083D5
:103970009183A283B383FE01ED56FF4F6081718175
:103980008281938120E030E040E85FE30E94B42828
:10399000882344F4FE01EF56FF4F81E090E09183CD
:1039A000808364C0FE01ED56FF4F6081718182818A
:1039B000938120E03FEF4FE757E40E945428181608
:1039C0000CF043C0FE01E956FF4F60817181828196
:1039D000938120E030E040E251E40E94AE26DC0119
:1039E000CB018E010F561F4FBC01CD010E94D82480
:1039F000DC01CB01F801918380831FC0FE01E157F8
:103A0000FF4F84E191E091838083FE01E157FF4FF6
:103A1000808191810197F1F7FE01E157FF4F91837A
:103A20008083DE01AF56BF4FFE01EF56FF4F80810E
:103A30009181019711969C938E93FE01EF56FF4F53
:103A4000808191810097D1F627C08E010F561F4FBC
:103A5000FE01ED56FF4F60817181828193810E944A
:103A6000D824DC01CB01F80191838083DE01A357C8
:103A7000BF4FFE01EF56FF4F808191818D939C9344
:103A8000FE01E357FF4F808191810197F1F7FE011D
:103A9000E357FF4F918380830E94E40B80912503BD
:103AA000909126030E94F30C0E94310C3AC580913C
:103AB0003A03833409F035C585E50E94810EFE0185
:103AC000E757FF4F80E090E0AAEFB4E48083918352
:103AD000A283B3838E010B571F4FFE01E757FF4FA1
:103AE00060817181828193812DEC3CEC4CE255E444
:103AF0000E94AE26DC01CB01F80180839183A28372
:103B0000B383FE01EB57FF4F608171818281938106
:103B100020E030E040E85FE30E94B428882344F4CA
:103B2000FE01ED57FF4F81E090E09183808364C0F8
:103B3000FE01EB57FF4F608171818281938120E00C
:103B40003FEF4FE757E40E94542818160CF043C08B
:103B5000FE01E757FF4F608171818281938120E0F0
:103B600030E040E251E40E94AE26DC01CB018E0140
:103B70000D571F4FBC01CD010E94D824DC01CB01A1
:103B8000F801918380831FC0FE01EF57FF4F84E14E
:103B900091E091838083FE01EF57FF4F80819181F7
:103BA0000197F1F7FE01EF57FF4F91838083DE010C
:103BB000AD57BF4FFE01ED57FF4F808191810197B7
:103BC00011969C938E93FE01ED57FF4F808191815A
:103BD0000097D1F627C08E010D571F4FFE01EB57FE
:103BE000FF4F60817181828193810E94D824DC0122
:103BF000CB01F80191838083DE01A158BF4FFE0104
:103C0000ED57FF4F808191818D939C93FE01E15888
:103C1000FF4F808191810197F1F7FE01E158FF4F3D
:103C20009183808389E60E94330EFE01E558FF4FA1
:103C300080E090E0AAEFB4E480839183A283B38311
:103C40008E0109581F4FFE01E558FF4F60817181B9
:103C5000828193812DEC3CEC4CE255E40E94AE262F
:103C6000DC01CB01F80180839183A283B383FE0141
:103C7000E958FF4F608171818281938120E030E0BB
:103C800040E85FE30E94B428882344F4FE01EB5827
:103C9000FF4F81E090E09183808364C0FE01E9588A
:103CA000FF4F608171818281938120E03FEF4FE778
:103CB00057E40E94542818160CF043C0FE01E55842
:103CC000FF4F608171818281938120E030E040E28A
:103CD00051E40E94AE26DC01CB018E010B581F4F30
:103CE000BC01CD010E94D824DC01CB01F8019183F5
:103CF00080831FC0FE01ED58FF4F84E191E0918366
:103D00008083FE01ED58FF4F808191810197F1F78B
:103D1000FE01ED58FF4F91838083DE01AB58BF4F0A
:103D2000FE01EB58FF4F80819181019711969C9382
:103D30008E93FE01EB58FF4F808191810097D1F661
:103D400027C08E010B581F4FFE01E958FF4F6081BD
:103D50007181828193810E94D824DC01CB01F8011A
:103D600091838083DE01AF58BF4FFE01EB58FF4FB8
:103D7000808191818D939C93FE01EF58FF4F80814C
:103D800091810197F1F7FE01EF58FF4F91838083F6
:103D90000E94D90B82E390E00E94F30C0E94310C48
:103DA00080E00E94E50DFE01E359FF4F80E090E0C6
:103DB000AAEFB4E480839183A283B3838E01075971
:103DC0001F4FFE01E359FF4F608171818281938112
:103DD0002DEC3CEC4CE255E40E94AE26DC01CB011C
:103DE000F80180839183A283B383FE01E759FF4FDB
:103DF000608171818281938120E030E040E85FE35F
:103E00000E94B428882344F4FE01E959FF4F81E061
:103E100090E09183808364C0FE01E759FF4F608189
:103E200071818281938120E03FEF4FE757E40E9448
:103E3000542818160CF043C0FE01E359FF4F60816F
:103E400071818281938120E030E040E251E40E9460
:103E5000AE26DC01CB018E0109591F4FBC01CD01FB
:103E60000E94D824DC01CB01F801918380831FC01C
:103E7000FE01EB59FF4F84E191E091838083FE01C5
:103E8000EB59FF4F808191810197F1F7FE01EB59CA
:103E9000FF4F91838083DE01A959BF4FFE01E9598D
:103EA000FF4F80819181019711969C938E93FE0123
:103EB000E959FF4F808191810097D1F627C08E018B
:103EC00009591F4FFE01E759FF4F608171818281BF
:103ED00093810E94D824DC01CB01F8019183808377
:103EE000DE01AD59BF4FFE01E959FF4F808191813D
:103EF0008D939C93FE01ED59FF4F80819181019735
:103F0000F1F7FE01ED59FF4F9183808381E40E9418
:103F1000330EFE01E15AFF4F80E090E0AAEFB4E4D7
:103F200080839183A283B3838E01055A1F4FFE01C4
:103F3000E15AFF4F60817181828193812DEC3CECCD
:103F40004CE255E40E94AE26DC01CB01F8018083EF
:103F50009183A283B383FE01E55AFF4F6081718193
:103F60008281938120E030E040E85FE30E94B42842
:103F7000882344F4FE01E75AFF4F81E090E09183EB
:103F8000808364C0FE01E55AFF4F608171818281A8
:103F9000938120E03FEF4FE757E40E945428181622
:103FA0000CF043C0FE01E15AFF4F608171818281B4
:103FB000938120E030E040E251E40E94AE26DC0133
:103FC000CB018E01075A1F4FBC01CD010E94D8249E
:103FD000DC01CB01F801918380831FC0FE01E95A07
:103FE000FF4F84E191E091838083FE01E95AFF4F06
:103FF000808191810197F1F7FE01E95AFF4F91838A
:104000008083DE01A75ABF4FFE01E75AFF4F808130
:104010009181019711969C938E93FE01E75AFF4F71
:10402000808191810097D1F627C08E01075A1F4FDA
:10403000FE01E55AFF4F60817181828193810E9468
:10404000D824DC01CB01F80191838083DE01AB5AD7
:10405000BF4FFE01E75AFF4F808191818D939C9362
:10406000FE01EB5AFF4F808191810197F1F7FE012C
:10407000EB5AFF4F9183808382E80E94810EFE01FC
:10408000EF5AFF4F80E090E0AAEFB4E48083918381
:10409000A283B3838E01035B1F4FFE01EF5AFF4FD4
:1040A00060817181828193812DEC3CEC4CE255E47E
:1040B0000E94AE26DC01CB01F80180839183A283AC
:1040C000B383FE01E35BFF4F608171818281938145
:1040D00020E030E040E85FE30E94B428882344F405
:1040E000FE01E55BFF4F81E090E09183808364C037
:1040F000FE01E35BFF4F608171818281938120E04B
:104100003FEF4FE757E40E94542818160CF043C0C5
:10411000FE01EF5AFF4F608171818281938120E01F
:1041200030E040E251E40E94AE26DC01CB018E017A
:10413000055B1F4FBC01CD010E94D824DC01CB01DF
:10414000F801918380831FC0FE01E75BFF4F84E18C
:1041500091E091838083FE01E75BFF4F8081918135
:104160000197F1F7FE01E75BFF4F91838083DE014A
:10417000A55BBF4FFE01E55BFF4F808191810197F9
:1041800011969C938E93FE01E55BFF4F8081918198
:104190000097D1F627C08E01055B1F4FFE01E35B40
:1041A000FF4F60817181828193810E94D824DC015C
:1041B000CB01F80191838083DE01A95BBF4FFE0133
:1041C000E55BFF4F808191818D939C93FE01E95BBC
:1041D000FF4F808191810197F1F7FE01E95BFF4F6D
:1041E0009183808384EB0E94E50DFE01ED5BFF4F20
:1041F00080E090E0AAEFB4E480839183A283B3834C
:104200008E01015C1F4FFE01ED5BFF4F60817181EC
:10421000828193812DEC3CEC4CE255E40E94AE2669
:10422000DC01CB01F80180839183A283B383FE017B
:10423000FF96608171818281938120E030E040E8C7
:104240005FE30E94B42888232CF481E090E09EAFC5
:104250008DAF46C0FE01FF9660817181828193819E
:1042600020E03FEF4FE757E40E945428181664F50A
:10427000FE01ED5BFF4F608171818281938120E0BF
:1042800030E040E251E40E94AE26DC01CB01BC01EB
:10429000CD010E94D824DC01CB019EAF8DAF0FC0B1
:1042A00084E191E09CAF8BAF8BAD9CAD0197F1F7B2
:1042B0009CAF8BAF8DAD9EAD01979EAF8DAF8DAD99
:1042C0009EAD009769F716C0FE01FF96608171816F
:1042D000828193810E94D824DC01CB019EAF8DAFF7
:1042E0008DAD9EAD9AAF89AF89AD9AAD0197F1F7CB
:1042F0009AAF89AF85E50E94810E80E090E0AAEF39
:10430000B4E48DAB9EABAFABB8AF6DA97EA98FA95E
:1043100098AD2DEC3CEC4CE255E40E94AE26DC015D
:10432000CB0189AB9AABABABBCAB69A97AA98BA922
:104330009CA920E030E040E85FE30E94B428882395
:104340002CF481E090E098AB8FA73FC069A97AA9CF
:104350008BA99CA920E03FEF4FE757E40E94542827
:1043600018164CF56DA97EA98FA998AD20E030E014
:1043700040E251E40E94AE26DC01CB01BC01CD013C
:104380000E94D824DC01CB0198AB8FA70FC084E139
:1043900091E09EA78DA78DA59EA50197F1F79EA7F9
:1043A0008DA78FA598A9019798AB8FA78FA598A9DE
:1043B000009769F714C069A97AA98BA99CA90E94E2
:1043C000D824DC01CB0198AB8FA78FA598A99CA717
:1043D0008BA78BA59CA50197F1F79CA78BA70E94A3
:1043E000E40B80912503909126030E94F30C0E9418
:1043F000310C97C00E94E40B80910E0390910F0343
:10440000019790930F0380930E0380E090E0A8E45F
:10441000B2E48FA398A7A9A7BAA76FA178A589A589
:104420009AA52DEC3CEC4CE255E40E94AE26DC0152
:10443000CB018BA39CA3ADA3BEA36BA17CA18DA13B
:104440009EA120E030E040E85FE30E94B42888238A
:104450002CF481E090E09AA389A33FC06BA17CA1DA
:104460008DA19EA120E03FEF4FE757E40E94542822
:1044700018164CF56FA178A589A59AA520E030E023
:1044800040E251E40E94AE26DC01CB01BC01CD012B
:104490000E94D824DC01CB019AA389A30FC084E138
:1044A00091E098A38F8F8F8D98A10197F1F798A332
:1044B0008F8F89A19AA101979AA389A389A19AA113
:1044C000009769F714C06BA17CA18DA19EA10E94E9
:1044D000D824DC01CB019AA389A389A19AA19E8F3C
:1044E0008D8F8D8D9E8D0197F1F79E8F8D8F0E9400
:1044F000310C8BE00E94C30A809319038091190349
:104500000E94FD0A90932A03809329032091290396
:1045100030912A0381E067E0A90123E030E00E94A6
:10452000860980910E0390910F03009709F062CFE6
:1045300080910A0390910B038130910509F0C6C068
:10454000B1C00E94E40B0E94260C80913D03909123
:104550003E03019790933E0380933D0380E090E0FB
:10456000A8E4B2E4898F9A8FAB8FBC8F698D7A8D66
:104570008B8D9C8D2DEC3CEC4CE255E40E94AE26DC
:10458000DC01CB018D8B9E8BAF8BB88F6D897E89C3
:104590008F89988D20E030E040E85FE30E94B428E6
:1045A00088232CF481E090E09C8B8B8B3FC06D893D
:1045B0007E898F89988D20E03FEF4FE757E40E9476
:1045C000542818164CF5698D7A8D8B8D9C8D20E0C2
:1045D00030E040E251E40E94AE26DC01CB01BC0198
:1045E000CD010E94D824DC01CB019C8B8B8B0FC0AA
:1045F00084E191E09A8B898B89899A890197F1F7F7
:104600009A8B898B8B899C8901979C8B8B8B8B894F
:104610009C89009769F714C06D897E898F89988D70
:104620000E94D824DC01CB019C8B8B8B8B899C89CD
:10463000988B8F878F8598890197F1F7988B8F8753
:104640000E94310C8AE00E94C30A80933503809156
:1046500035030E94FD0A90934A03809349032091F9
:10466000490330914A0381E061E0A90123E030E091
:104670000E9486098BE00E94C30A809319038091EF
:1046800019030E94FD0A90932A0380932903209125
:10469000290330912A0381E067E0A90123E030E09B
:1046A0000E94860980913D0390913E03009709F096
:1046B00048CF0E94D90B0E94100C80E590E00E9428
:1046C000750C10920B0310920A03CDC080910A035F
:1046D00090910B038230910509F0C5C0B1C00E94D2
:1046E000E40B0E94050C80913D0390913E030197DD
:1046F00090933E0380933D0380E090E0A8E4B2E411
:104700008B879C87AD87BE876B857C858D859E85D5
:104710002DEC3CEC4CE255E40E94AE26DC01CB01D2
:104720008F839887A987BA876F81788589859A85CD
:1047300020E030E040E85FE30E94B42888232CF4B6
:1047400081E090E09E838D833FC06F81788589856D
:104750009A8520E03FEF4FE757E40E94542818164F
:104760004CF56B857C858D859E8520E030E040E2B0
:1047700051E40E94AE26DC01CB01BC01CD010E94B8
:10478000D824DC01CB019E838D830FC084E191E0AE
:104790009C838B838B819C810197F1F79C838B8316
:1047A0008D819E8101979E838D838D819E8100974F
:1047B00069F714C06F81788589859A850E94D8240D
:1047C000DC01CB019E838D838D819E819A838983B9
:1047D00089819A810197F1F79A8389830E94310C2C
:1047E0008AE00E94C30A80933503809135030E94BA
:1047F000FD0A90934A038093490320914903309125
:104800004A0381E061E0A90123E030E00E948609CB
:104810008BE00E94C30A80931903809119030E94C0
:10482000FD0A90932A038093290320912903309154
:104830002A0381E067E0A90123E030E00E948609B5
:1048400080913D0390913E03009709F048CF0E946C
:10485000E40B0E94EF0B80E590E00E94750C109233
:104860000B0310920A030E94310C89E00E94C30AD4
:1048700080933C0380913C030E94FD0A9093420385
:1048800080934103209141033091420382E061E033
:10489000A90123E030E00E9486098DE00E94C30A4E
:1048A00080933B0380913B030E94FD0A9093400359
:1048B00080933F0320913F033091400382E06DE0FD
:1048C000A90123E030E00E9486098AE00E94C30A21
:1048D00080933503809135030E94FD0A90934A032B
:1048E000809349032091490330914A0381E061E0BC
:1048F000A90123E030E00E9486098BE00E94C30AF0
:1049000080931903809119030E94FD0A90932A0352
:10491000809329032091290330912A0381E067E0E5
:10492000A90123E030E00E94860981E00E94C30AC9
:10493000882F90E0A0E0B0E0BC01CD010E94962954
:10494000DC01CB018093360390933703A0933803A7
:10495000B093390382E00E94C30A882F90E0A0E060
:10496000B0E0BC01CD010E949629DC01CB0180930F
:10497000450390934603A0934703B093480383E015
:104980000E94C30A882F90E0A0E0B0E0BC01CD01F6
:104990000E949629DC01CB018093130390931403AA
:1049A000A0931503B09316030E94D90B0C94251104
:1049B000EF92FF920F931F937B018C0120E030E078
:1049C00040E05FE40E94842888238CF0C801B7018E
:1049D00020E030E040E05FE40E9450260E9442293F
:1049E0009B01AC01205030404040504806C0C801F7
:1049F000B7010E9442299B01AC01B901CA011F9174
:104A00000F91FF90EF900895A0E0B0E0EAE0F5E2AA
:104A10000C94182CDC012B01FA019C91923008F4C3
:104A200039C1EB018881823008F433C1943069F4D4
:104A3000843009F02FC111969C91119789819817A4
:104A400009F428C1A2E0B2E025C1843009F421C1F3
:104A50008230A9F4923009F01DC19A01AD0188E0BD
:104A6000EA010990AE01E90109929E018150C1F766
:104A7000E201898111969C918923818308C192303A
:104A800009F407C112962D903C901397EB018A818F
:104A90009B811496AD90BD90CD90DC901797EC80E3
:104AA000FD800E811F819101281B390BB90137FF51
:104AB00004C066277727621B730B603271050CF008
:104AC00061C0121613066CF537014801062E04C0AA
:104AD00096948794779467940A94D2F721E030E013
:104AE00040E050E004C0220F331F441F551F6A9559
:104AF000D2F721503040404050402E213F214023EA
:104B00005123211531054105510521F021E030E007
:104B100040E050E079018A01E628F72808291929A0
:104B20003CC0232BD1F1260E371E35014601062E3F
:104B300004C096948794779467940A94D2F721E0FE
:104B400030E040E050E004C0220F331F441F551FE7
:104B50006A95D2F721503040404050402A213B21F5
:104B60004C215D21211531054105510521F021E040
:104B700030E040E050E059016A01A628B728C82873
:104B8000D9280BC0821593052CF01C01AA24BB2444
:104B9000650103C0EE24FF24870111969C91D20188
:104BA00011968C91981709F445C0992339F0A80102
:104BB00097012A193B094C095D0906C0A601950118
:104BC0002E193F09400B510B57FD08C0118233824B
:104BD000228224833583468357831DC081E08183ED
:104BE0003382228288279927DC01821B930BA40B36
:104BF000B50B84839583A683B7830DC0220F331F23
:104C0000441F551F248335834683578382819381B4
:104C10000197938382832481358146815781DA010C
:104C2000C9010197A109B1098F5F9F4FAF4FBF43E2
:104C300028F30BC0918333822282EA0CFB1C0C1DEB
:104C40001D1DE482F5820683178383E0808324811F
:104C500035814681578157FF1AC0C901AA2797FDA0
:104C6000A095BA2F81709070A070B070569547953E
:104C700037952795822B932BA42BB52B8483958373
:104C8000A683B78382819381019693838283DF0118
:104C900001C0D201CD01CDB7DEB7E2E10C94342CD6
:104CA000A0E2B0E0E6E5F6E20C94242C69837A8376
:104CB0008B839C832D833E834F835887E9E0EE2EC0
:104CC000F12CEC0EFD1ECE010196B7010E94332B94
:104CD0008E010F5E1F4FCE010596B8010E94332B47
:104CE0008A8991E089278A8BC701B801AE01475EA6
:104CF0005F4F0E9404250E945E2AA096E6E00C9475
:104D0000402CA0E2B0E0E7E8F6E20C94242C6983A2
:104D10007A838B839C832D833E834F835887F9E06E
:104D2000EF2EF12CEC0EFD1ECE010196B7010E9474
:104D3000332B8E010F5E1F4FCE010596B8010E94E6
:104D4000332BC701B801AE01475E5F4F0E940425B7
:104D50000E945E2AA096E6E00C94402CA0E2B0E00F
:104D6000E4EBF6E20C94182C69837A838B839C83A2
:104D70002D833E834F835887CE010196BE01675F26
:104D80007F4F0E94332BCE010596BE016F5E7F4F91
:104D90000E94332B9985923088F089898230C8F03F
:104DA000943019F4823051F404C0843029F49230E4
:104DB00081F482E092E0C6C0923049F420E09A8506
:104DC0008A89981321E02A87CE010996BBC08230D8
:104DD00049F420E09A858A89981321E02A8BCE0134
:104DE0004196B0C02D843E844F8458886D887E885B
:104DF0008F88988CEE24FF248701AA24BB246501A8
:104E000040E050E060E070E0E0E0F0E0C10181707F
:104E10009070892BE9F0E60CF71C081D191D9A010A
:104E2000AB012A0D3B1D4C1D5D1D80E090E0A0E014
:104E3000B0E0E614F7040805190520F481E090E0DD
:104E4000A0E0B0E0BA01A901480F591F6A1F7B1FFB
:104E5000AA0CBB1CCC1CDD1C97FE08C081E090E0B6
:104E6000A0E0B0E0A82AB92ACA2ADB2A3196E032AB
:104E7000F10549F0660C771C881C991C56944794E0
:104E800037942794C3CFFA85EA892B893C898B858F
:104E90009C85280F391F2E5F3F4F17C0CA018170B4
:104EA0009070892B61F016950795F794E79480E050
:104EB00090E0A0E0B0E8E82AF92A0A2B1B2B7695AF
:104EC0006795579547952F5F3F4F77FDE7CF0CC00C
:104ED000440F551F661F771F17FD4160EE0CFF1C26
:104EE000001F111F21503040403090E0590790E0E2
:104EF000690790E4790760F32B8F3C8FDB01CA01CF
:104F00008F779070A070B07080349105A105B105C5
:104F100061F447FD0AC0E114F1040105110529F00F
:104F2000405C5F4F6F4F7F4F40781A8EFE1711F035
:104F300081E08A8F4D8F5E8F6F8F78A383E0898F9A
:104F4000CE0149960E945E2AA096E2E10C94342C90
:104F5000A8E1B0E0EEEAF7E20C94202C69837A83B2
:104F60008B839C832D833E834F835887B9E0EB2E40
:104F7000F12CEC0EFD1ECE010196B7010E94332BE1
:104F80008E010F5E1F4FCE010596B8010E94332B94
:104F90002985223008F47EC03989323010F4B801F6
:104FA0007CC08A859A8989278A87243011F022302B
:104FB00031F4231709F06EC062E072E06EC0343045
:104FC00039F41D861E861F86188A1C861B8604C01F
:104FD000323021F484E08987B7015FC02B853C859E
:104FE0008B899C89281B390B3C872B87ED84FE8499
:104FF0000F851889AD88BE88CF88D88CEA14FB0449
:105000000C051D0540F4EE0CFF1C001F111F215064
:1050100030403C872B8720E030E040E050E080E0EB
:1050200090E0A0E0B0E460E070E0EA14FB040C055E
:105030001D0540F0282B392B4A2B5B2BEA18FB0867
:105040000C091D09B695A79597958795EE0CFF1C41
:10505000001F111F6F5F7F4F6F31710531F7DA014C
:10506000C9018F779070A070B07080349105A10550
:10507000B10561F427FD0AC0E114F1040105110531
:1050800029F0205C3F4F4F4F5F4F20782D873E87A0
:105090004F87588BBE01675F7F4FCB010E945E2A0E
:1050A0006896EAE00C943C2CA8E1B0E0EAE5F8E26E
:1050B0000C94242C69837A838B839C832D833E8379
:1050C0004F83588789E0E82EF12CEC0EFD1ECE01AF
:1050D0000196B7010E94332B8E010F5E1F4FCE0148
:1050E0000596B8010E94332B8985823040F089896A
:1050F000823028F0C701B8010E94AB2B01C08FEFAE
:105100006896E6E00C94402CA8E1B0E0EAE8F8E20A
:105110000C94242C69837A838B839C832D833E8318
:105120004F83588789E0E82EF12CEC0EFD1ECE014E
:105130000196B7010E94332B8E010F5E1F4FCE01E7
:105140000596B8010E94332B8985823040F0898909
:10515000823028F0C701B8010E94AB2B01C08FEF4D
:105160006896E6E00C94402CA8E1B0E0EAEBF8E2A7
:105170000C94242C69837A838B839C832D833E83B8
:105180004F83588789E0E82EF12CEC0EFD1ECE01EE
:105190000196B7010E94332B8E010F5E1F4FCE0187
:1051A0000596B8010E94332B8985823040F08989A9
:1051B000823028F0C701B8010E94AB2B01C081E00A
:1051C0006896E6E00C94402CA8E0B0E0EAEEF8E245
:1051D0000C94212C9B01AC0183E08983DA01C90185
:1051E0008827B7FD83959927AA27BB27B82E2115B5
:1051F00031054105510519F482E089833AC08823BD
:10520000A9F0203080E0380780E0480780E85807A0
:1052100029F460E070E080E09FEC30C0EE24FF24D1
:105220008701E21AF30A040B150B02C079018A0107
:105230008EE1C82ED12CDC82CB82ED82FE820F83E0
:105240001887C801B7010E940F2A0197181619067E
:1052500084F4082E04C0EE0CFF1C001F111F0A94DA
:10526000D2F7ED82FE820F831887C81AD90ADC8232
:10527000CB82BA82CE0101960E945E2A2896E9E08E
:105280000C943D2CACE0B0E0E8E4F9E20C94282C5E
:1052900069837A838B839C83CE010196BE016B5F09
:1052A0007F4F0E94332B8D81823061F1823050F12B
:1052B000843021F48E81882351F12EC02F813885CE
:1052C00037FD20C06E812F3131051CF06623F9F0C7
:1052D00023C08EE190E0821B930B29853A854B8594
:1052E0005C8504C056954795379527958A95D2F7E2
:1052F0006623B1F050954095309521953F4F4F4F23
:105300005F4F0EC020E030E040E050E009C02FEFDA
:105310003FEF4FEF5FE704C020E030E040E050E8AF
:10532000B901CA012C96E2E00C94442CA8E0B0E04C
:10533000ECE9F9E20C94202C7B018C0161157105DC
:105340008105910519F482E0898360C083E0898337
:105350008EE1C82ED12CDC82CB82ED82FE820F83BF
:105360001887C801B7010E940F2AFC013197F7FF87
:105370003BC0222733272E1B3F0B57016801022E0B
:1053800004C0D694C794B794A7940A94D2F740E087
:1053900050E060E070E081E090E0A0E0B0E004C0A8
:1053A000880F991FAA1FBB1F2A95D2F70197A10941
:1053B000B1098E219F21A023B1230097A105B1053A
:1053C00021F041E050E060E070E04A295B296C295F
:1053D0007D294D835E836F8378878EE190E08E1BFD
:1053E0009F0B9C838B8312C0309781F00E2E04C0DC
:1053F000EE0CFF1C001F111F0A94D2F7ED82FE82F3
:105400000F831887CE1ADF0ADC82CB821A82CE0184
:1054100001960E945E2A2896EAE00C943C2CEF92BA
:10542000FF920F931F937B018C0180E0E81680E0D0
:10543000F80681E0080780E0180788F48FEFE81687
:10544000F1040105110531F028F088E090E0A0E0BA
:10545000B0E017C080E090E0A0E0B0E012C080E0D3
:10546000E81680E0F80680E0080781E0180728F0D9
:1054700088E190E0A0E0B0E004C080E190E0A0E02E
:10548000B0E020E230E040E050E0281B390B4A0B4E
:105490005B0B04C016950795F794E7948A95D2F7AD
:1054A000F701E65FFD4F8081281B31094109510951
:1054B000C9011F910F91FF90EF900895DF92EF9235
:1054C000FF920F931F93FC01E480F5800681178102
:1054D000D1808081823048F480E090E0A0E1B0E0AB
:1054E000E82AF92A0A2B1B2BA5C0843009F49FC097
:1054F000823021F4EE24FF24870105C0E114F10479
:105500000105110519F4E0E0F0E096C062817381B5
:105510009FEF623879070CF05BC022E83FEF261B53
:10552000370B2A3131052CF020E030E040E050E02C
:105530002AC0B801A701022E04C076956795579539
:1055400047950A94D2F781E090E0A0E0B0E004C073
:10555000880F991FAA1FBB1F2A95D2F70197A1098F
:10556000B1098E219F21A023B1230097A105B10588
:1055700021F081E090E0A0E0B0E09A01AB01282B9F
:10558000392B4A2B5B2BDA01C9018F779070A07001
:10559000B07080349105A105B10539F427FF09C029
:1055A000205C3F4F4F4F5F4F04C0215C3F4F4F4F38
:1055B0005F4FE0E0F0E02030A0E03A07A0E04A07CB
:1055C000A0E45A0710F0E1E0F0E079018A0127C079
:1055D0006038710564F5FB01E158FF4FD801C70140
:1055E0008F779070A070B07080349105A105B105DF
:1055F00039F4E7FE0DC080E490E0A0E0B0E004C024
:105600008FE390E0A0E0B0E0E80EF91E0A1F1B1F38
:1056100017FF05C016950795F794E794319687E034
:1056200016950795F794E7948A95D1F705C0EE246F
:10563000FF248701EFEFF0E06E2F679566276795EF
:10564000902F9F77D794DD24D7948E2F8695492F5E
:10565000462B582F5D29B701CA011F910F91FF906A
:10566000EF90DF900895FC01DB01408151812281A0
:10567000622F6F7770E0221F2227221F9381892FCC
:10568000880F822B282F30E0991F9927991F119698
:105690009C93119721153105A9F541155105610517
:1056A000710511F482E037C082E89FEF13969C9356
:1056B0008E9312979A01AB0167E0220F331F441FAC
:1056C000551F6A95D1F783E08C930DC0220F331FCD
:1056D000441F551F12968D919C9113970197139615
:1056E0009C938E931297203080E0380780E0480723
:1056F00080E4580758F314962D933D934D935C9393
:10570000179708952F3F310579F44115510561052B
:10571000710519F484E08C93089564FF03C081E05F
:105720008C9312C01C9210C02F57304013963C939C
:105730002E93129783E08C9387E0440F551F661FCA
:10574000771F8A95D1F7706414964D935D936D938E
:105750007C93179708951F93DC01FB019C91923075
:1057600008F447C08081823008F443C0943051F47B
:1057700011961C91843099F58181682F70E0611B2E
:1057800071093FC0843021F0923031F48230B9F198
:105790008181882389F12DC011961C911197823047
:1057A000F1F081811817D9F412962D913C9113973D
:1057B000828193818217930794F028173907BCF0F0
:1057C00014968D919D910D90BC91A02D24813581D1
:1057D00046815781281739074A075B0718F41123B8
:1057E00041F00AC082179307A407B50740F41123BC
:1057F00019F061E070E005C06FEF7FEF02C060E07C
:1058000070E0CB011F910895AA1BBB1B51E107C09B
:10581000AA1FBB1FA617B70710F0A61BB70B881F40
:10582000991F5A95A9F780959095BC01CD010895CF
:105830002F923F924F925F926F927F928F929F92A0
:10584000AF92BF92CF92DF92EF92FF920F931F938E
:10585000CF93DF93CDB7DEB7CA1BDB0B0FB6F8943F
:10586000DEBF0FBECDBF19942A88398848885F846F
:105870006E847D848C849B84AA84B984C884DF80F0
:10588000EE80FD800C811B81AA81B981CE0FD11DD4
:105890000FB6F894DEBF0FBECDBFED010895FA013B
:1058A000EE0FFF1F30962105310599F16115710545
:1058B00061F48038BFE39B0749F168949038810513
:1058C00061F08038BFEF9B0741F0992342F5FF3F1D
:1058D000E1053105210511F1E8940894E795D90116
:1058E000AA2329F4AB2FBE2FF85FD0F310C0FF5FBF
:1058F00070F4A695E0F7F73950F019F0FF3A38F454
:105900009F779F930CD00F9007FC905808953EF01E
:1059100049C060E070E080E89FE308954FE79F771B
:105920005F934F933F932F93D0D02F913F914F91FF
:105930005F9114DA05C019F40EF02EC07DC032C09C
:1059400061D0C8F39638C0F707F80F92E8942BE3BC
:105950003AEA48EB5FE738D10F920F920F924DB7BA
:105960005EB70F92F2D0E4EEF0E01FD04F915F915E
:10597000EF91FF91E595EE1FFF1F49F0FE57E0689C
:105980004427EE0F441FFA95E1F74195550B64D07B
:105990000F9007FE58C0089597F99F6780E870E060
:1059A00060E008959FEF80EC0895DF93CF931F93FD
:1059B0000F93FF92EF92DF927B018C01689405C0F8
:1059C000DA2EEF01FFD0FE01E894A59125913591E3
:1059D00045915591AEF3EF0159D1FE019701A80110
:1059E000DA9479F7DF90EF90FF900F911F91CF91AC
:1059F000DF91089557FD9058440F551F59F05F3FB0
:105A000071F04795880F97FB991F61F09F3F79F0E0
:105A100087950895121613061406551FF2CF469562
:105A2000F1DF08C0161617061806991FF1CF8695E4
:105A30007105610508940895E894BB2766277727C8
:105A4000CB0197F908959B01AC0160E070E080E81C
:105A50009FE37ECAA1CF6DC1D5DFE8F39923D9F3C7
:105A6000940F511DBBF39150504094F059F088238E
:105A700032F0660F771F881F91505040C1F79E3F4C
:105A8000510544F7880F911D9695879597F90895CC
:105A90005F3FACF0983E9CF0BB2786957795679565
:105AA000B79508F4B1609395C1F7BB0F58F711F49F
:105AB00060FFE8CF6F5F7F4F8F4F9F4FE3CFBDCF2A
:105AC0000EF037C16FCF689467CF9CDFC8F399237E
:105AD000D1F3C6F3DF93CF931F930F93FF92C92F98
